:020000040800F2
:10000000000004200DDF0008352600083D2600080A
:10001000452600084D26000855260008000000006F
:100020000000000000000000000000002DB50008E6
:100030005D26000800000000E1B7000845B8000890
:100040005DDF00085DDF00085DDF00085DDF0008A0
:100050005DDF00085DDF00085DDF00085DDF000890
:100060005DDF00085DDF00085DDF00085DDF000880
:100070005DDF00085DDF00085DDF00085DDF000870
:100080005DDF00085DDF00085DDF00085DDF000860
:100090005DDF00085DDF00085DDF00085DDF000850
:1000A0005DDF00085DDF00085DDF00085DDF000840
:1000B0005DDF00085DDF00085DDF00085DDF000830
:1000C0005DDF00085DDF00085DDF00085DDF000820
:1000D0005DDF00085DDF00085DDF00085DDF000810
:1000E0005DDF00085DDF00085DDF00085DDF000800
:1000F0005DDF00085DDF00085DDF00085DDF0008F0
:100100005DDF00085DDF00085DDF00085DDF0008DF
:100110005DDF00085DDF00086D2600085DDF000878
:100120005DDF00085DDF00085DDF00085DDF0008BF
:100130005DDF00085DDF00085DDF00085DDF0008AF
:100140005DDF00085DDF00085DDF00085DDF00089F
:100150005DDF00085DDF00085DDF00085DDF00088F
:100160005DDF00085DDF00085DDF00085DDF00087F
:100170005DDF00085DDF00085DDF000800000000B3
:100180005DDF00085DDF00085DDF00085DDF00085F
:100190005DDF00085DDF00085DDF00085DDF00084F
:1001A0005DDF00085DDF00085DDF00085DDF00083F
:1001B0005DDF00085DDF00085DDF00085DDF00082F
:0801C0005DDF00085DDF0008AF
:1001D000024A0349034800F069B900BF000000204B
:1001E0007D140008100000200C4B4168994210B5A6
:1001F000044601D001F042F9A168094B994202D0AE
:10020000204601F03BF9E168064B994204D02046B4
:10021000BDE8104001F032B910BD00BFC0010020A0
:10022000280200209002002008B54B6EDA0702D4A5
:100230008B899B0501D5002008BD886D00F052FB1D
:10024000002008BD08B54B6EDA0702D48B899B05E8
:1002500001D5002008BD886D00F04CFB002008BDD2
:100260002DE9F843314C3249DFF8D890DFF8D880D7
:10027000304FC4F83811002504232946082204F120
:100280005C002D4EE360C4E90055C4E90455A56047
:100290006566A56100F048FA04F15800C4E9084910
:1002A000C4E90A87266300F015FB2946234B6367E0
:1002B000082204F1C400C4E91A55C4E91E55256793
:1002C000C4F8CC50C4F8805000F02EFA04F1680352
:1002D00004F1C000C4F88830C4E92398C4E9257645
:1002E00000F0F8FA164BC4F8DC30294604F5967095
:1002F0000822C4E93455C4E93855C4F8D850C4F8C4
:100300003451C4F8E85000F00FFA04F1D003C4E906
:100310003E87C4F8F49004F59470C4F80061C4F802
:10032000F030BDE8F84300F0D5BA00BFC0010020AE
:10033000D1010008A1050008C50500080900010059
:10034000120002003905000861050008F8B50646EC
:100350002A4800F0C7FA2A4BD3F83831002B43D093
:10036000284FD7E90134013B04D524E05A1C04F19D
:10037000680420D0B4F90C50013B002DF6D1224B7B
:10038000E36004F15800656600F0A4FA1B4800F031
:10039000B1FAC4E90155C4E9045508222560A561F4
:1003A000294604F15C0000F0BFF9C4E90D55C4E929
:1003B00012552046F8BD3D680DB12F46D1E74FF4E8
:1003C000D671304600F0B4FB044680B10423C0E986
:1003D00000530C302946A0604FF4D072254600F03F
:1003E000A3F93C602F46BCE7FFF73AFFB8E70348A4
:1003F0003C6000F07FFA0C233360DAE71C03002036
:10040000C0010020000000200100FFFF10B50446DD
:100410000B4800F067FA236A2BB90A4B0A4AD3F853
:100420003831226223B1BDE81040054800F062BABD
:10043000FFF716FFBDE81040014800F05BBA00BFAF
:100440001C030020C0010020E9010008014800F061
:1004500049BA00BF1C030020014800F04BBA00BF9E
:100460001C03002008B5054800F03CFABDE8084030
:10047000034A0449002000F019B800BF1C03002003
:10048000000000202902000808B5054A054900209F
:1004900000F00CF8BDE80840034800F02BBA00BF9C
:1004A00000000020450200081C0300202DE9F8434D
:1004B0000746884616464FF00009D6E90154013D2B
:1004C00010D4A389012B08D9B4F90E300133214689
:1004D000384602D0C04749EA0009013D6B1C04F1CF
:1004E0006804EED13668002EE7D14846BDE8F883AF
:1004F0000EB400B582B003AB816853F8042B0193AE
:1005000000F0E8FB02B05DF804EB03B0704700BFF9
:100510000FB400B5074983B004AB086853F8042B47
:100520008168019300F0D6FB03B05DF804EB04B0E2
:10053000704700BF0C00002010B50C46B1F90E103A
:1005400000F06CF9002803DB636D0344636510BDA4
:10055000A38923F48053A38110BD00BF00207047FE
:100560002DE9F0410C46B1F90C101F46CB050546AC
:1005700016460BD421F48051A1813B46B4F90E10EC
:1005800032462846BDE8F04100F05EB9B4F90E10DD
:100590000223002200F02CF9B4F90C10EAE700BFA6
:1005A00010B50C46B1F90E1000F022F9B4F90C3078
:1005B000421C0EBF23F4805343F480536065A38133
:1005C00010BD00BFB1F90E1000F000B9032A30B41D
:1005D00015D941EA0004A40784460B4604D0541EF2
:1005E0000FE0043A032A08D91946604653F8044B31
:1005F0005CF8045BA542F4D0F1E760461946541E4E
:100600007AB1431E0139021901E09A4209D013F868
:10061000010F11F801CF6045F7D0A0EB0C0030BC02
:100620007047002030BC704788420ED98B18834237
:100630000BD900EB020C002A6ED0624613F801CDF4
:1006400002F801CD9942F9D170470F2A0FD803461D
:1006500002F1FF3C002A5FD00CF1010C013B8C44FD
:1006600011F8012B03F8012F6145F9D1704740EAD9
:1006700001039B0751D1A2F1100370B501F1200CC9
:1006800023F00F0501F1100E00F11004AC441B091A
:100690005EF8105C44F8105C5EF80C5C44F80C5C8E
:1006A0005EF8085C44F8085C5EF8045C44F8045C9E
:1006B0000EF1100EE64504F11004E9D1013312F0F9
:1006C0000C0F01EB031102F00F0400EB031328D011
:1006D000043C24F003064FEA940C1E441C1F8E4673
:1006E0005EF8045B44F8045FB442F9D10CF10104F4
:1006F00002F0030203EB840301EB840102F1FF3CEF
:100700004AB10CF1010C013B8C4411F8012B03F8A8
:10071000012F6145F9D170BD704702F1FF3C0346DE
:100720009AE72246EAE700BF830730B547D0541E58
:10073000002A3ED0CAB2034601E0013C39D303F897
:10074000012B9D07F9D1032C2CD9CDB205EB052542
:100750000F2C05EB054535D9A4F1100222F00F0C42
:1007600003F1100EE6444FEA121C1A46C2E9005586
:10077000C2E9025510327245F8D10CF1010214F0B1
:100780000C0F03EB021204F00F0C13D0ACF10403B6
:1007900023F003030433134442F8045B9342FBD178
:1007A0000CF003042CB1C9B21C4403F8011BA34292
:1007B000FBD130BD64461346002CF4D1F9E7034663
:1007C0001446C0E71A46A446E0E700BF38B5074D17
:1007D0000022044608462A6001F06FFF431C00D047
:1007E00038BD2B68002BFBD0236038BDFC020020F5
:1007F00038B50C46084D8446114620461A4600235B
:100800002B60644601F080FF431C00D038BD2B688C
:10081000002BFBD0236038BDFC02002038B50C460D
:10082000084D8446114620461A4600232B60644634
:1008300001F026FF431C00D038BD2B68002BFBD0F5
:10084000236038BDFC02002038B50C46084D8446B4
:10085000114620461A4600232B60644601F040FBF7
:10086000431C00D038BD2B68002BFBD0236038BD63
:10087000FC020020014B1868704700BF0C000020EC
:1008800070B50F4B0F4DAB42A3EB050607D0B6106A
:10089000002455F8043B01349847A642F9D80DF0DE
:1008A000AFFC094D094B5E1BAB424FEAA60606D0D2
:1008B000002455F8043B01349847A642F9D870BD8E
:1008C00000F9000800F9000800F9000804F9000820
:1008D000704700BF704700BF704700BF704700BF40
:1008E000704700BF704700BF01207047012070476C
:1008F000704700BF704700BF844641EA000313F011
:1009000003036DD1403A41D351F8043B40F8043B16
:1009100051F8043B40F8043B51F8043B40F8043BD9
:1009200051F8043B40F8043B51F8043B40F8043BC9
:1009300051F8043B40F8043B51F8043B40F8043BB9
:1009400051F8043B40F8043B51F8043B40F8043BA9
:1009500051F8043B40F8043B51F8043B40F8043B99
:1009600051F8043B40F8043B51F8043B40F8043B89
:1009700051F8043B40F8043B51F8043B40F8043B79
:1009800051F8043B40F8043B403ABDD2303211D319
:1009900051F8043B40F8043B51F8043B40F8043B59
:1009A00051F8043B40F8043B51F8043B40F8043B49
:1009B000103AEDD20C3205D351F8043B40F8043B19
:1009C000043AF9D2043208D0D2071CBF11F8013B17
:1009D00000F8013B01D30B8803806046704700BFDD
:1009E000082A13D38B078DD010F003038AD0C3F1EC
:1009F0000403D21ADB071CBF11F8013B00F8013BCE
:100A000080D331F8023B20F8023B7BE7043AD9D38C
:100A1000013A11F8013B00F8013BF9D20B78037061
:100A20004B7843708B78837060467047002950D0B4
:100A300038B551F8043C0C1F002BB8BFE41805462C
:100A400000F0F6F8274A13682BB1A3420CD92168AD
:100A5000601883422CD0636028461460BDE838409B
:100A600000F0ECB8A3420FD81A465B68002BF9D10E
:100A700011685018844217D02CD363605460284604
:100A8000BDE8384000F0DAB811685018A04214D020
:100A900020D8216860188342EFD118685B68084449
:100AA000C4E900035460EAE723680B441360E6E7F7
:100AB00018685B6808442060CDE72068014450183E
:100AC00083421160DBD1D3E900040144C2E9001480
:100AD000D5E770470C232B602846BDE8384000F06E
:100AE000ADB800BF2403002070B5104E3368054632
:100AF0000C46B3B12146284600F032FF431C0CD00F
:100B0000C41C24F00304A04205D0211A284600F09A
:100B100027FF013001D0204670BD4FF0FF34204642
:100B200070BD194600F01CFF3060E3E72003002091
:100B30002DE9F843CD1C25F0030508350C2D38BFF1
:100B40000C25002D064618DBA94216D8DFF8DC80FC
:100B500000F06EF8D8F80420A2B1144603E06368F0
:100B600022467BB11C4623685B1BF8D40B2B1FD895
:100B70009442636854D053600CE00C23336000202F
:100B8000BDE8F88329463046FFF7AEFF431C044614
:100B900019D00560304600F051F804F10B00231D18
:100BA00020F00700C21A1CBF1B1AA350BDE8F8832F
:100BB00061199442256014BF5160C8F80410635154
:100BC00063684B60E6E7D8F804701FB33C467F6863
:100BD000002FFBD123683946304604EB030900F0AF
:100BE000BFFE814516D12368ED1A29463046FFF72E
:100BF0007BFF01300ED02368D8F804202B442360FB
:100C0000536883B1A34203D01A465B689C42FBD170
:100C10000023B0E70C233360304600F00FF8AEE756
:100C2000C8F80430B6E7C8F80470B3E72003002022
:100C30000148FFF757BE00BF100300200148FFF72F
:100C400059BE00BF100300209368013B002B936046
:100C500011DA10B49469A34209DB0A2907D013689A
:100C6000581C1060197008465DF8044B70475DF819
:100C7000044B00F0C3BD1368581C1060197008467F
:100C8000704700BF9BB1F8B5134406460F46541E8B
:100C90005D1E01E0AC4208D014F8011F3A46304610
:100CA000FFF7D2FF431CF5D1F8BD0020F8BD0020AE
:100CB000704700BF936810B514461BB9184600234F
:100CC000636010BD00F01AFC0023A3600023636082
:100CD00010BD00BF2DE9F04FA1B08B4691461C46D8
:100CE000049018B1036A002B00F04781DBF8642000
:100CF000BBF90C30D20702D49F0540F137811E07A3
:100D000040F19E80DBF81030002B00F0998000232A
:100D1000CA460D9343F22003ADF839309AF80030FB
:100D2000974E07940127002B7AD0D14604E019F89A
:100D3000013F002B00F09A80252BF8D1B9EB0A086F
:100D400040F0978099F80030002B69D000234FF0D5
:100D5000FF32CDE9092309F1010908930B938DF8BE
:100D600063301E9305E0089A07FA03F31A430892CA
:100D7000A1464C46052214F8011B304600F008FE3F
:100D8000A246831B0028EED1089BD80644BF202230
:100D90008DF86320190799F8001044BF2B228DF8B5
:100DA00063202A297BD1079A11680432002907920F
:100DB000C0F2B0800B9199F801102E2900F08680C6
:100DC000704C0322204600F0E3FD38B1089B001B65
:100DD0004022824013430AF1010A08931AF8011BCA
:100DE00069488DF83810062200F0D2FD002800F086
:100DF0009780664B002B7ED007AA0092644B049824
:100E00005A4608A9AFF300800390039B013307D033
:100E10000D9B039A13440D939AF80030002B84D154
:100E2000DBF8643013F0010FBBF80C3002D19A05E7
:100E300040F195805B0616D40D9821B0BDE8F08F87
:100E40000498594600F02AFD00283FF460AFDBF813
:100E50006430DD0707D4BBF80C309C0503D4DBF805
:100E60005800FFF747FD4FF0FF30E6E7B9EB0A08FF
:100E7000D6D00AF1FF35CDF81490A946049D01E0C3
:100E8000A0453FD94C465A4619F8011F2846FFF79E
:100E9000DBFE02340130A4EB0A04F1D1C0E7A1F17A
:100EA0003002092A88BFCA4687D80B9B00E001346C
:100EB000217803EB830302EB4303A1F13002092AFB
:100EC000F5D92E290B93A2467FF47AAF9AF8011038
:100ED0002A292FD1079B9AF802101A680992043325
:100EE000002A0AF102000793B8BF4FF0FF33824691
:100EF000B8BF099364E7079B073323F00703083360
:100F0000079385E70D99DDF81490414499F8003076
:100F10000D9119E7494243F002030B9108934AE708
:100F200007AA00921A4B04985A4608A900F0D2F872
:100F300003906AE7A1F130020023092A09930AF11C
:100F4000010A3FF63DAF1AF8011F03EB830302EBE2
:100F50004303A1F13002092AF5D9099330E7DBF800
:100F60005800FFF7C7FCBBF80C3063E7DBF858000C
:100F7000FFF7B8FCBBF90C30C1E6FFF747FAB5E65E
:100F8000BCF80008C4F80008C8F800080000000019
:100F9000850C000810B4054C8446134620685DF8A3
:100FA000044B0A466146FFF795BE00BF0C000020C7
:100FB0002DE9F84F92461F460A698B68DDF82890A4
:100FC0009A42B8BF1A46CAF8002091F843300C463E
:100FD000064613B10132CAF80020226891065FD597
:100FE000DAF800300233CAF80030226812F0060F37
:100FF00011461DD1E1689942D8BF114618DD4FF066
:10100000000804F1190B05E0E568DAF80030ED1A84
:1010100045450CDD01235A4639463046C847013064
:1010200008F10108F0D14FF0FF30BDE8F88F2168DA
:1010300094F84330003B18BF01238A060AD5E11813
:101040005A1C302081F84300224494F8451082F85D
:101050004310023304F1430239463046C847013099
:10106000E1D02368DAF80050216903F00603042B6D
:10107000D4E902201BD08A4220DD4FF00008521A2A
:1010800090441A34002501E0454517DA0123224631
:1010900039463046C847013005F10105F4D1C2E7B1
:1010A00012F0060F0DD0003B18BF0123D2E7401B02
:1010B0008A4220EAE078E2DC0028E2DC0020BDE899
:1010C000F88FE168DAF800309942D8BF114696DC13
:1010D000AEE700BF2DE9F047174684B00A7E0C9DAD
:1010E0000C460646984601F1430C002A35D0A2F181
:1010F0005803D9B2202969D8202B67D8DFE813F02C
:10110000E60066006600660066006600660066002F
:10111000660066006600AC0070006600660066004F
:1011200066007000660066006600660021008300AD
:10113000C60066006600B6006600830066006600B2
:10114000EC002B6822686169181D286010061B6876
:1011500002D4520600F1E08019600023E1462361C9
:10116000CDF800803B4603AA21463046FFF720FF1A
:10117000013020D023694A4639463046C047013005
:1011800019D02368E068DDF80C909B0718D5484516
:1011900016DD002504F1190A04E0E068A0EB09035C
:1011A000AB420DDD0123524639463046C04701307F
:1011B00005F10105F1D14FF0FF3004B0BDE8F08733
:1011C0004845B8BF484604B0BDE8F08784F84220DF
:1011D000012004F142090023206184F84330BFE775
:1011E0002A682368111D1806296002D4590600F1E7
:1011F00095801068014600286268C0F293805448C8
:101200004FF00A0E15E020682B6810F0800F53F89D
:10121000041B02D1400648BF89B26F2A4C482B609C
:1012200014BF4FF00A0E4FF0080E0023626884F8D6
:101230004330002AA26051DB236823F004032360BB
:1012400000294BD1002A7BD1E146BEF1080F56D0D0
:10125000ACEB0903236183E72B681A6804332B6026
:1012600004F1420984F842200120B4E72B68626847
:10127000191D2960D3F800900021484600F088FB32
:10128000002863D0A0EB09006060A4E7236843F066
:101290002003236078222F4884F845202A6813F021
:1012A000800F52F8041B03D113F0400F18BF89B20E
:1012B0002A60DA0744BF43F02003236019B923688A
:1012C00023F0200323604FF0100EAEE7582384F87C
:1012D00045301F482368E1E72368DBE77546E146B0
:1012E000B1FBF5F305FB131A0A46AA4210F80A10DF
:1012F00009F8011D1946F3D2BEF1080FA8D12368E1
:10130000DD07A5D5626823699A42A1DC302309F87C
:10131000013C09F1FF399BE719801EE7B2F9001083
:10132000084668E72D20002AA26084F8430002DB0B
:1013300023F0040323600A2505484942AE46CEE760
:10134000037884F8423004F142097EE7606842E79E
:10135000D0F80008E4F80008B1F90C302DE9F041AC
:101360001E070C4680463DD44A68002A56DDE56AD1
:10137000002D34D00022D8F80060C8F8002013F403
:101380008052216A57D101234046A847451C024696
:1013900066D0B4F90C30E56A216A580705D5636850
:1013A000D21A636B0BB1236CD21A00234046A847B4
:1013B000431C42D00023636023692360A389DF04B8
:1013C00000D56065616BC8F8006041B104F1440369
:1013D000994202D04046FFF729FB002363630020B7
:1013E000BDE8F0810E69002EF9D09B070D6808BF9B
:1013F0004B690E6018BF0023AD1B8B600BE02B46C2
:101400003246216AA76A4046B847B0F1000CA5EB06
:101410000C05664406DD002DF1DCE0E70A6C002ACD
:10142000A5DCDCE7B4F90C3043F04003A3814FF0B6
:10143000FF30BDE8F081626DAFE7D8F80010B4F975
:101440000C301D29F0D80C4ACA40D507ECD52269CA
:10145000226000226260DA04B4D50029B1D0B1E77D
:10146000D8F80030002B94D01D2B01D0162BD9D1E9
:10147000C8F80060B3E700BF0100402038B50B6931
:10148000CBB10C46054608B1036ABBB1B4F90C30C8
:101490008BB1626ED00701D4990512D5284621463A
:1014A000FFF75AFF636EDA07054602D4A3899B054E
:1014B0000BD5284638BD0025284638BDFEF7A6FFC7
:1014C000E4E7A06DFFF70EFAE8E7A06DFFF712FA68
:1014D000EFE700BF014618B1044B1868FFF7CEBF15
:1014E000034A04490448FEF7E1BF00BF0C00002096
:1014F000000000207D140008100000209368002BDD
:1015000000F0F8802DE9F04FB1F90CC01CF0080F85
:1015100083B0904681460C4631D00B697BB31CF0FA
:101520000207D8F8006038D00027D4F828B0216A24
:10153000DFF8C4A23D4655452B463A4628BF5346E0
:101540004846C5B1D847002840F3CA80D8F80830CB
:101550001B1A07442D1AC8F80830002B00F0B6807B
:1015600055452B46D4F828B0216A28BF53463A4641
:101570004846002DE6D1D6E900750836DBE721465E
:10158000484600F08BF9002840F0AF80B4F90CC059
:10159000D8F800601CF00207C6D11CF0010A63D124
:1015A0002368A168574618468B46002F58D01CF474
:1015B000007F00F0B580B9420A4600F2E1801CF4D9
:1015C000906F2FD0216962695D1A02EB420202EB33
:1015D000D2726B1C52103B44934292BF93469B467F
:1015E0001A461CF4806F00F0EA8011464846FFF767
:1015F0009FFA002800F0F9802A4621690090FFF741
:101600007BF9A289009B22F4906242F08002A281C1
:101610005819ABEB0505C4F814B02361A560206030
:10162000BB463A4651460092FEF7FEFFA16823688A
:10163000009AA1EB0B011A443D46A16022600027ED
:10164000D8F808305B1BAA44C8F80830002B3DD0FE
:101650002368A168B4F90CC018468B46002FA6D1A8
:10166000D6E900A708369EE73846BB463D460097B8
:10167000002D41D0002846D0009A2068A168D4E906
:101680000473AA4228BF2A46B84204D901EB030AD0
:10169000524500F38580934275DC216AA76A5A4659
:1016A0004846B847B0F1000A1ADD009BB3EB0A03C5
:1016B00000930FD00120D8F80830A3EB0A03D344DD
:1016C000A5EB0A05C8F80830002BD1D1002003B0E3
:1016D000BDE8F08F21464846FFF7D0FE0028EAD04B
:1016E000B4F90C3043F04003A3814FF0FF3003B056
:1016F000BDE8F08F00207047756833460836002D2E
:10170000FAD0D3F800B02A460A21584600F040F932
:10171000002867D00130A0EB0B0300931A46ACE71A
:1017200022699A4214D36269BA4211D86FF0004319
:10173000BB4228BF3B46A56A93FBF2F3216A02FB3A
:1017400003F348465246A847051EC9DD7F1B77E7CD
:10175000B94228BF39460D4618460A465146FEF79B
:1017600063FFA1682368491B2B44A1602360002903
:10177000ECD121464846FFF781FE0028E6D0AFE7CE
:10178000BB463A464EE759460192FEF74DFF019A95
:10179000A3689B1AA360236813442360924684E7DE
:1017A00059465246FEF740FF2368534423602146C2
:1017B0004846FFF763FE00283FF477AF90E74846BE
:1017C00000F036F9034600287FF422AF216948462D
:1017D000FFF72CF9B4F90C300C22C9F8002023F0E3
:1017E00080037FE76A1C009247E70C22B4F90C30B3
:1017F000C9F8002076E700BF00FCFF7FF8B50D4672
:101800001446064610B1036A002B37D0A389A2699B
:10181000A2601A0719D52369BBB122686169D31A7E
:10182000EDB299422F4620DD0133A1680139A16054
:10183000511C2160157062699A420DD0A389DB07A3
:1018400001D50A2D08D03846F8BD2146304600F0B3
:1018500025F838B92369E0E721463046FFF70EFE48
:101860000028F0D04FF0FF37EDE721463046FFF774
:1018700005FE0028F6D122680123D6E7FEF7C6FD53
:10188000C4E700BF10B4044C03460A4620685DF864
:10189000044B1946FFF7B2BF0C00002038B52F4BA0
:1018A0001B6805460C4613B11A6A002A4BD0B4F9DE
:1018B0000C3018071CD5226922B313F0010107D0A0
:1018C000616900204942A060A1613AB1002038BDA1
:1018D000980758BF6169A160002AF7D1190658BF5F
:1018E0001046F4D543F04003A3814FF0FF3038BDDC
:1018F000D9062CD55A0712D4226943F00803A381D4
:10190000002ADAD103F42071B1F5007FD5D0214649
:10191000284600F0BFF8B4F90C302269CDE7616BBE
:1019200051B104F14402914204D02846FFF77EF8F9
:10193000B4F90C300022626322690021C4E900215D
:1019400023F02403D9E71846FEF760FDAFE709222C
:1019500043F040032A60A381C7E700BF0C000020CA
:1019600038B5074D0022044608462A6000F0DAFE2A
:10197000431C00D038BD2B68002BFBD0236038BD42
:10198000FC02002000000000000000000000000039
:1019900001F0FF01102A2BDB10F0070F08D010F820
:1019A000013B013A8B422DD010F0070F42B3F6D124
:1019B000F0B441EA012141EA014122F007047FF03D
:1019C00000070023F0E80256083C85EA010586EA94
:1019D000010685FA47F5A3FA87F586FA47F6A5FAD0
:1019E00087F68EB9EED1F0BC01F0FF0102F00702DC
:1019F00032B110F8013B013A83EA010313B1F8D187
:101A00000020704701387047002D06BF3546033867
:101A1000073815F0010F07D1013015F4807F02BFA0
:101A2000013015F4C03F0130F0BC0138704700BFF1
:101A30002DE9F041144641B30AB306460D4600F0C5
:101A4000DBF88442074602D8B4EB500F13D8214686
:101A50003046FFF76DF8804650B1BC422246294619
:101A600028BF3A46FEF748FF29463046FEF7DEFF1C
:101A70004046BDE8F081A8464046BDE8F081A0465A
:101A8000FEF7D4FF4046BDE8F081BDE8F0411146C5
:101A9000FFF74EB870B5B1F90C300C46990796B007
:101AA00007D504F147030122C4E90432236016B0CC
:101AB00070BDB4F90E100029054629DB6A4600F016
:101AC00073F8002822DB4FF480612846019EFFF75F
:101AD0002FF888B3A389206043F0800306F4704692
:101AE000A381B6F5005F4FF48063C4E90403DED13F
:101AF000B4F90E10284600F06DF80028D7D0A3895D
:101B000023F0030343F00103A381D0E7B4F90C30C1
:101B100013F0800F14BF40264FF4806631462846EC
:101B2000FFF706F840B1A389206043F08003C4E9C1
:101B30000406A38116B070BDB4F90C309A05B6D472
:101B400023F0030304F1470243F002030121C4E937
:101B50000421A3812260AAE770B50C46B1F90E10EA
:101B6000002996B015461E460FDB6A4600F01CF8A9
:101B700000280ADB019B03F47043A3F50053B3FA7A
:101B800083F34FF480625B0908E0A28912F0800FB2
:101B90004FF0000314BF40224FF4806200203360F6
:101BA0002A6016B070BD00BF70B50C46084D0346E4
:101BB0000026204611461C462E6000F08AFD431C7C
:101BC00000D070BD2B68002BFBD0236070BD00BF20
:101BD000FC02002038B5074D0022044608462A6062
:101BE00000F087FD431C00D038BD2B68002BFBD0D4
:101BF000236038BDFC02002051F8043C181F002B64
:101C0000BCBF0B58C018704753B94AB9002908BF68
:101C100000281CBF4FF0FF314FF0FF3000F00CB830
:101C2000ADF1080C6DE904CE0CF099F9DDF804E093
:101C3000DDE9022304B07047704700BF10B5054CC2
:101C4000237833B9044B13B10448AFF30080012368
:101C5000237010BD280300200000000000E20008EF
:101C600008B5034B1BB103490348AFF3008008BD1F
:101C7000000000002C03002000E2000880B400AF48
:101C8000064BD3F88830054A43F47003C2F8883015
:101C900000BFBD465DF8047B704700BF00ED00E06B
:101CA00080B483B000AF786039607B68002B0BD0C4
:101CB0003B68DB68002B07D03B689B68002B03D098
:101CC0003B681B69002B02D14FF0FF3314E03B68E7
:101CD0001A687B689A603B685A687B68DA603B6880
:101CE000DA687B685A613B689A687B681A613B686E
:101CF0001A697B689A61002318460C37BD465DF867
:101D0000047B704780B586B000AF78600023FB602D
:101D100000237B6100233B617B685B68002B39D12A
:101D20007B689B68002B02D07B689B6898477B6828
:101D300020221A6000237B611CE07B685B6907F14D
:101D40000C021221786998470346002B03DA6FF0E2
:101D500004033B610BE0FB6803F01F037A699A42BE
:101D600005D17B687A691A6000233B6105E07B69D5
:101D700001337B617B691F2BDFD97B681B681F2BBD
:101D800002D96FF002033B613B69002B02D17B68F3
:101D900001225A603B6918461837BD4680BD80B5A0
:101DA00084B000AF78600023FB607B685B697A6871
:101DB000106807F10C02012198470346002B02DA54
:101DC0006FF004036EE07B685B697A68106807F166
:101DD0000C02012198470346002B02DA6FF004033E
:101DE00060E0FB6803F00403002B01D1012359E0FC
:101DF0007B685B697A68106807F10C0200219847DC
:101E00000346002B02DA6FF004034BE0FB6803F497
:101E10008053002B1BD1FB6803F40053002B06D02A
:101E2000FB6803F48073002B01D002233AE0FB68C7
:101E300003F40053002B01D0032333E0FB6803F4C9
:101E40008073002B01D004232CE005232AE07B685B
:101E50005B697A68106807F10C021F2198470346F6
:101E6000002B02DA6FF004031CE0FB6803F48053DC
:101E7000002B01D1062315E0FB6803F01C03182B8F
:101E800001D102230EE0FB6803F01C03082B01D1F3
:101E9000032307E0FB6803F01C03142B01D1042388
:101EA00000E0052318461037BD4680BD80B582B0DE
:101EB00000AF78600221044801F0BDFF4FF4FA70D2
:101EC0000AF0A6FF00BFF5E70020024080B582B00F
:101ED00000AF786004F056FD0A200AF099FFFBE796
:101EE00080B584B000AFF860B9607A607B689AB260
:101EF0004FF0FF33B968044803F01CFA7B681846BA
:101F00001037BD4680BD00BF4403002080B582B0BD
:101F100002AF02F00BF800F027F800F097F800F09D
:101F2000F7F800F0C5F80023019301230093002384
:101F30004FF48062084909480AF026FE0023019305
:101F40000123009300238022054906480AF01CFE65
:101F50000AF0ECFF00BFFDE718E20008CD1E000804
:101F600024E20008AD1E000880B594B000AF07F170
:101F70002003302200211846FEF7D6FB07F10C03A0
:101F800000221A605A609A60DA601A6101F06EFFEE
:101F90002C4B1B6C2B4A43F080531364294B1B6C56
:101FA00003F08053BB60BB68274B1B68264A43F491
:101FB00040431360244B1B6803F440437B607B6801
:101FC00009233B624FF480337B6201237B6302234E
:101FD000BB634FF48003FB6319233B644FF4C87366
:101FE0007B640223BB640923FB6407F120031846CA
:101FF00000F0B0FC0346002B01D000F0F1F901F035
:1020000045FF0346002B01D000F0EAF90F23FB60E7
:1020100002233B6100237B614FF4A053BB614FF46B
:102020008053FB6107F10C030621184600F036FFD0
:102030000346002B01D000F0D3F900BF5037BD4656
:1020400080BD00BF003802400070004080B5A2B0E3
:1020500000AF3B1D842200211846FEF765FB134BA1
:102060007B604FF4C073BB6105233B620223FB61BD
:1020700003237B620123FB624FF400333B630023A5
:102080007B644FF00063C7F880300023C7F88430CA
:102090003B1D184601F01AF90346002B01D000F051
:1020A0009FF900BF8837BD4680BD00BF0800B00063
:1020B00080B500AF144B154A1A60134B4FF4E13250
:1020C0005A60114B00229A600F4B0022DA600E4BCF
:1020D00000221A610C4B0C225A610B4B00229A61B0
:1020E000094B0022DA61084B00221A62064B0022DB
:1020F0005A62054803F0D0F80346002B01D000F0E7
:102100006FF900BF80BD00BF4403002000100140F4
:1021100080B590B000AF07F12C0300221A605A601E
:102120009A60DA601A619E4B1B6B9D4A43F0100364
:1021300013639B4B1B6B03F01003BB62BB6A984B92
:102140001B6B974A43F040031363954B1B6B03F0E3
:1021500040037B627B6A924B1B6B914A43F0020304
:1021600013638F4B1B6B03F002033B623B6A8C4B88
:102170001B6B8B4A43F008031363894B1B6B03F003
:102180000803FB61FB69864B1B6B854A43F0040324
:102190001363834B1B6B03F00403BB61BB69804B70
:1021A0001B6B7F4A43F0010313637D4B1B6B03F0F2
:1021B00001037B617B697A4B1B6B794A43F40073A3
:1021C0001363774B1B6B03F400733B613B69744BE8
:1021D0001B6B734A43F480731363714B1B6B03F4E3
:1021E0008073FB60FB686E4B1B6B6D4A43F480632E
:1021F00013636B4B1B6B03F48063BB60BB68684B62
:102200001B6B674A43F020031363654B1B6B03F0A2
:1022100020037B607B68624B1B6B614A43F0800349
:1022200013635F4B1B6B03F080033B603B68002232
:102230000C215C4801F0E6FD01224FF48051594821
:1022400001F0E0FD00224FF40051574801F0DAFDA3
:102250000022C821554801F0D5FD43F62343FB6217
:1022600002233B6300237B630323BB630A23FB63DB
:1022700007F12C0319464E4801F018FC4FF4805327
:10228000FB6200233B6300237B6307F12C031946A9
:10229000484801F00BFC41F20C03FB6201233B6355
:1022A00000237B630023BB6307F12C0319463D48E1
:1022B00001F0FCFB48F20403FB6200233B630023B4
:1022C0007B6307F12C031946374801F0EFFB4FF40D
:1022D0000053FB6201233B6300237B630023BB634A
:1022E00007F12C031946304801F0E0FB4FF400538E
:1022F000FB624FF490133B6300237B6307F12C03D5
:102300001946284801F0D2FB1023FB6202233B63ED
:1023100000237B630323BB630A23FB6307F12C03C6
:102320001946214801F0C2FBC823FB6201233B632D
:1023300000237B630023BB6307F12C0319461B4872
:1023400001F0B4FB0523FB6202233B6300237B63A4
:102350000323BB630A23FB6307F12C0319461648CA
:1023600001F0A4FB0423FB6200233B6300237B6397
:1023700007F12C0319460D4801F098FB0223FB627C
:1023800001233B6300237B630323BB6307F12C031F
:102390001946044801F08AFB00BF4037BD4680BDA6
:1023A0000038024000200240001C02400018024099
:1023B00000040240002402400008024080B582B0C0
:1023C00000AF78607B681B68044A934201D101F03A
:1023D000BBFD00BF0837BD4680BD00BF00100040F8
:1023E00080B400AF72B600BF00BFFDE780B582B019
:1023F00000AF114B1B6C104A43F0805313640E4B1B
:102400001B6C03F080537B607B680B4B5B6C0A4A50
:1024100043F480435364084B5B6C03F480433B609C
:102420003B6800220F216FF0010000F069FA00BF45
:102430000837BD4680BD00BF0038024080B5ACB053
:1024400000AF786007F19C0300221A605A609A601E
:10245000DA601A6107F11803842200211846FEF79A
:1024600063F97B681B68324A93425CD14023BB61AD
:102470000023FB6507F11803184600F027FF034609
:10248000002B01D0FFF7ACFF2A4B5B6C294A43F0CD
:1024900010035364274B5B6C03F010037B617B6973
:1024A000244B1B6B234A43F002031363214B1B6B2A
:1024B00003F002033B613B691E4B1B6B1D4A43F05B
:1024C000010313631B4B1B6B03F00103FB60FB68F1
:1024D0008023C7F89C300223C7F8A0300023C7F838
:1024E000A4300023C7F8A8300723C7F8AC3007F1A1
:1024F0009C031946104801F0D9FA4FF40073C7F84D
:102500009C300223C7F8A0300023C7F8A430002372
:10251000C7F8A8300723C7F8AC3007F19C03194669
:10252000064801F0C3FA00BFB037BD4680BD00BF0A
:102530000010014000380240000402400000024048
:1025400080B58EB000AF78600023FB620023BB62D1
:10255000334B1B6C324A43F010031364304B1B6C3B
:1025600003F01003FB60FB6807F1100207F114038E
:102570001146184600F078FE3B6AFB62FB6A002BAE
:1025800003D100F049FE786304E000F045FE034605
:102590005B007B637B6B234AA2FB03239B0C013B09
:1025A000BB62214B214A1A601F4B40F2E732DA60CE
:1025B0001D4ABB6A53601C4B00221A611A4B002251
:1025C0009A60194B00229A61174803F06BFB03468F
:1025D00087F8333097F83330002B1BD1124803F0C3
:1025E000C3FB034687F8333097F83330002B11D103
:1025F000362000F0A1F97B680F2B08D800227968FB
:10260000362000F07DF90A4A7B68136002E001235E
:1026100087F8333097F8333018463837BD4680BDD9
:102620000038024083DE1B43CC0300200010004032
:102630006000002080B400AF00BFFDE780B400AFB1
:1026400000BFFDE780B400AF00BFFDE780B400AF7E
:1026500000BFFDE780B400AF00BFFDE780B400AF6E
:1026600000BFBD465DF8047B7047000080B500AF39
:10267000024803F0F1FB00BF80BD00BFCC03002087
:1026800080B586B000AFF860B9607A6000237B61E6
:102690000AE0AFF300800146BB685A1CBA60CAB2B8
:1026A0001A707B6901337B617A697B689A42F0DB3F
:1026B0007B6818461837BD4680BD80B483B000AF34
:1026C00078604FF0FF3318460C37BD465DF8047B49
:1026D000704780B483B000AF786039603B684FF4D6
:1026E00000525A60002318460C37BD465DF8047B43
:1026F000704780B483B000AF7860012318460C3770
:10270000BD465DF8047B704780B485B000AFF860CB
:10271000B9607A60002318461437BD465DF8047B23
:102720007047000080B586B000AF7860144A154B42
:10273000D31A7B617B693B61134B1B68002B02D171
:10274000114B124A1A60104B1A687B6813443A699D
:102750009A4207D2FEF78EF803460C221A604FF019
:10276000FF3309E0084B1B68FB60074B1A687B6866
:102770001344054A1360FB6818461837BD4680BDF0
:10278000000004200004000018040020F8FB0020D2
:1027900080B485B000AF78607B6803F00703FB600E
:1027A0000B4BDB68BB60BA684FF6FF031340BB609E
:1027B000FB681A02BB681A43064B1343BB60044A0A
:1027C000BB68D36000BF1437BD465DF8047B70471B
:1027D00000ED00E00000FA0580B400AF044BDB68B8
:1027E0001B0A03F007031846BD465DF8047B7047DB
:1027F00000ED00E080B483B000AF0346FB7197F9B1
:102800000730002B0BDBFB7903F01F02074997F918
:1028100007305B09012000FA02F241F8232000BFD3
:102820000C37BD465DF8047B704700BF00E100E057
:1028300080B483B000AF03463960FB7197F907306D
:10284000002B0ADB3B68DAB20C4997F9073012011A
:10285000D2B20B4483F800230AE03B68DAB208499D
:10286000FB7903F00F03043B1201D2B20B441A763A
:1028700000BF0C37BD465DF8047B704700E100E007
:1028800000ED00E080B489B000AFF860B9607A6014
:10289000FB6803F00703FB61FB69C3F10703042B2B
:1028A00028BF0423BB61FB690433062B02D9FB69F3
:1028B000033B00E000237B614FF0FF32BB6902FA6B
:1028C00003F3DA43BB681A407B699A404FF0FF314B
:1028D0007B6901FA03F3D9437B680B401343184625
:1028E0002437BD465DF8047B704780B582B000AFE9
:1028F00078607868FFF74CFF00BF0837BD4680BDA1
:1029000080B586B000AF0346B9607A60FB730023E0
:102910007B61FFF761FF78617A68B9687869FFF7D2
:10292000B1FF024697F90F3011461846FFF780FFB6
:1029300000BF1837BD4680BD80B582B000AF0346EA
:10294000FB7197F907301846FFF754FF00BF0837AF
:10295000BD4680BD80B586B000AF78600023FB75B2
:102960007B68002B01D1012391E27B681B6803F097
:102970000103002B00F08780964B9B6803F00C034B
:10298000042B0CD0934B9B6803F00C03082B12D143
:10299000904B5B6803F48003B3F5800F0BD18D4B34
:1029A0001B6803F40033002B6CD07B685B68002B42
:1029B00068D101236BE27B685B68B3F5803F06D189
:1029C000844B1B68834A43F4803313602EE07B689A
:1029D0005B68002B0CD17F4B1B687E4A23F480334D
:1029E00013607C4B1B687B4A23F4802313601DE03B
:1029F0007B685B68B3F5A02F0CD1764B1B68754ADA
:102A000043F480231360734B1B68724A43F4803392
:102A100013600BE06F4B1B686E4A23F48033136026
:102A20006C4B1B686B4A23F4802313607B685B68E4
:102A3000002B13D001F09CFA386108E001F098FAFD
:102A400002463B69D31A642B01D903231FE2614B71
:102A50001B6803F40033002BF0D014E001F088FA77
:102A6000386108E001F084FA02463B69D31A642B0E
:102A700001D903230BE2574B1B6803F40033002BEF
:102A8000F0D100E000BF7B681B6803F00203002B5D
:102A900069D0504B9B6803F00C03002B0BD04D4BBF
:102AA0009B6803F00C03082B1CD14A4B5B6803F4B2
:102AB0008003002B16D1474B1B6803F00203002B49
:102AC00005D07B68DB68012B01D00123DFE1414B9E
:102AD0001B6823F0F8027B681B69DB003D49134348
:102AE0000B6040E07B68DB68002B23D0394B1B6810
:102AF000384A43F00103136001F03AFA386108E004
:102B000001F036FA02463B69D31A022B01D903239E
:102B1000BDE1304B1B6803F00203002BF0D02D4BBE
:102B20001B6823F0F8027B681B69DB00294913430B
:102B30000B6018E0274B1B68264A23F00103136043
:102B400001F016FA386108E001F012FA02463B691A
:102B5000D31A022B01D9032399E11E4B1B6803F002
:102B60000203002BF0D17B681B6803F00803002BE5
:102B700038D07B685B69002B19D0164B5B6F154A08
:102B800043F00103536701F0F3F9386108E001F005
:102B9000EFF902463B69D31A022B01D9032376E1F0
:102BA0000C4B5B6F03F00203002BF0D01AE0094BD3
:102BB0005B6F084A23F00103536701F0D9F93861CC
:102BC0000AE001F0D5F902463B69D31A022B03D97A
:102BD00003235CE100380240914B5B6F03F002037A
:102BE000002BEED17B681B6803F00403002B00F080
:102BF000A4808B4B1B6C03F08053002B0DD1884BB2
:102C00001B6C874A43F080531364854B1B6C03F0A5
:102C10008053BB60BB680123FB75824B1B6803F4C8
:102C20008073002B18D17F4B1B687E4A43F480735E
:102C3000136001F09DF9386108E001F099F902464E
:102C40003B69D31A642B01D9032320E1754B1B6820
:102C500003F48073002BF0D07B689B68012B06D1B6
:102C60006F4B1B6F6E4A43F0010313672DE07B68C7
:102C70009B68002B0CD16A4B1B6F694A23F0010340
:102C80001367674B1B6F664A23F0040313671CE04E
:102C90007B689B68052B0CD1614B1B6F604A43F02E
:102CA000040313675E4B1B6F5D4A43F00103136718
:102CB0000BE05B4B1B6F5A4A23F001031367584B21
:102CC0001B6F574A23F0040313677B689B68002B34
:102CD00015D001F04DF938610AE001F049F90246DA
:102CE0003B69D31A41F28832934201D90323CEE0E3
:102CF0004B4B1B6F03F00203002BEED014E001F0EE
:102D000037F938610AE001F033F902463B69D31A1A
:102D100041F28832934201D90323B8E0404B1B6F44
:102D200003F00203002BEED1FB7D012B05D13C4BC0
:102D30001B6C3B4A23F0805313647B689B69002B18
:102D400000F0A480364B9B6803F00C03082B6BD07B
:102D50007B689B69022B49D1314B1B68304A23F0B9
:102D60008073136001F004F9386108E001F000F9A4
:102D700002463B69D31A022B01D9032387E0284B73
:102D80001B6803F00073002BF0D17B68DA697B6865
:102D90001B6A1A437B685B6A9B011A437B689B6AC8
:102DA0005B08013B1B041A437B68DB6A1B06134369
:102DB0001B4A43F000535360194B1B68184A43F0F9
:102DC0008073136001F0D4F8386108E001F0D0F8A6
:102DD00002463B69D31A022B01D9032357E0104B5B
:102DE0001B6803F00073002BF0D04FE00C4B1B6806
:102DF0000B4A23F08073136001F0BAF8386108E0E1
:102E000001F0B6F802463B69D31A022B01D903231D
:102E10003DE0034B1B6803F00073002BF0D135E05D
:102E200000380240007000401B4B5B68FB607B6811
:102E30009B69012B28D0FB6803F480027B68DB6967
:102E40009A4221D1FB6803F03F027B681B6A9A42D9
:102E50001AD1FA6847F6C07313407A68526A920131
:102E6000934211D1FB6803F440327B689B6A5B0894
:102E7000013B1B049A4207D1FB6803F070627B6838
:102E8000DB6A1B069A4201D0012300E000231846AA
:102E90001837BD4680BD00BF0038024080B584B001
:102EA00000AF786039600023FB607B68002B01D1A4
:102EB0000123D0E06A4B1B6803F00F033A689A4283
:102EC00010D9674B1B6823F00F0265493B68134319
:102ED0000B60634B1B6803F00F033A689A4201D002
:102EE0000123B8E07B681B6803F00203002B20D0AD
:102EF0007B681B6803F00403002B05D0594B9B68CB
:102F0000584A43F4E05393607B681B6803F008035E
:102F1000002B05D0534B9B68524A43F460439360A7
:102F2000504B9B6823F0F0027B689B684D4913432C
:102F30008B607B681B6803F00103002B40D07B682B
:102F40005B68012B07D1474B1B6803F40033002B50
:102F500015D101237FE07B685B68022B07D1414BD1
:102F60001B6803F00073002B09D1012373E03D4B74
:102F70001B6803F00203002B01D101236BE0394BE6
:102F80009B6823F003027B685B68364913438B60C0
:102F900000F0EEFFF8600AE000F0EAFF0246FB688E
:102FA000D31A41F28832934201D9032353E02D4BC7
:102FB0009B6803F00C027B685B689B009A42EBD134
:102FC000274B1B6803F00F033A689A4210D2244B38
:102FD0001B6823F00F0222493B6813430B60204B10
:102FE0001B6803F00F033A689A4201D0012332E0D4
:102FF0007B681B6803F00403002B08D0194B9B6807
:1030000023F4E0527B68DB68164913438B607B68CE
:103010001B6803F00803002B09D0124B9B6823F4B4
:1030200060427B681B69DB000E4913438B6000F034
:1030300021F802460B4B9B681B0903F00F030A495A
:10304000CB5C22FA03F3094A1360094B1B6818464C
:10305000FFF776FA002318461037BD4680BD00BF43
:10306000003C02400038024000F800085C000020EC
:10307000600000202DE9B04F90B000AF00237B63CB
:103080000023FB6300233B630023BB63594B9B6816
:1030900003F00C03082B0DD0082B00F2A180002BAD
:1030A00002D0042B03D09BE0534BBB639BE0534BFC
:1030B000BB6398E04F4B5B6803F03F037B634D4B72
:1030C0005B6803F48003002B28D04A4B5B689B09A4
:1030D00000223B627A623B6AC3F308000021474B3F
:1030E00003FB01F2002300FB03F31344434AA0FB5C
:1030F0000212FA620A46BA62FA6A1344FB627B6BF6
:103100000022BB61FA61D7E90623D7E90A01FEF77D
:103110007BFD02460B461346FB6353E0354B5B6871
:103120009B0900223B617A613B69C3F3080A4FF0B7
:10313000000B52465B464FF000004FF00001590172
:1031400041EAD261500102460B46B2EB0A0863EB3A
:103150000B094FF000024FF000034FEA891343EAD6
:1031600098634FEA8812B2EB080463EB09054FF04D
:1031700000024FF00003EB0043EA5473E2001446F0
:103180001D4614EB0A033B6045EB0B037B604FF0DD
:1031900000024FF00003D7E9004529468B02214683
:1031A00043EA915321468A02104619467B6B00225E
:1031B000BB60FA60D7E90223FEF726FD02460B4604
:1031C0001346FB630B4B5B681B0C03F003030133DB
:1031D0005B003B63FA6B3B6BB2FBF3F3BB6302E058
:1031E000054BBB6300BFBB6B18464037BD46BDE80F
:1031F000B08F00BF003802400024F40040787D0109
:1032000080B400AF034B1B681846BD465DF8047BD5
:10321000704700BF5C00002080B500AFFFF7F0FFF3
:103220000246054B9B689B0A03F007030349CB5CEE
:1032300022FA03F3184680BD0038024010F8000857
:1032400080B500AFFFF7DCFF0246054B9B685B0BC8
:1032500003F007030349CB5C22FA03F3184680BD51
:103260000038024010F8000880B483B000AF7860E6
:1032700039607B680F221A60124B9B6803F00302CF
:103280007B685A600F4B9B6803F0F0027B689A6082
:103290000C4B9B6803F4E0527B68DA60094B9B6837
:1032A000DB0803F4E0527B681A61074B1B6803F0EC
:1032B0000F023B681A6000BF0C37BD465DF8047B07
:1032C000704700BF00380240003C024080B588B023
:1032D00000AF786000237B6100233B610023FB602B
:1032E0000023FB610023BB617B681B6803F00103C3
:1032F000002B12D0694B9B68684A23F4000393604B
:10330000664B9A687B685B6B644913438B607B6890
:103310005B6B002B01D10123FB617B681B6803F40D
:103320000023002B17D05D4BD3F88C3023F44012D0
:103330007B68DB6B59491343C1F88C307B68DB6BCE
:10334000B3F5801F01D10123FB617B68DB6B002B90
:1033500001D10123BB617B681B6803F48013002B40
:1033600017D04E4BD3F88C3023F440027B681B6C93
:103370004A491343C1F88C307B681B6CB3F5800F4E
:1033800001D10123FB617B681B6C002B01D1012360
:10339000BB617B681B6803F08073002B01D00123A5
:1033A000FB617B681B6803F02003002B00F08B801F
:1033B0003A4B1B6C394A43F080531364374B1B6CF8
:1033C00003F08053BB60BB68354B1B68344A43F441
:1033D0008073136000F0CCFD786108E000F0C8FD58
:1033E00002467B69D31A642B01D9032357E32C4B84
:1033F0001B6803F48073002BF0D0284B1B6F03F481
:1034000040733B613B69002B35D07B681B6B03F439
:1034100040733A699A422ED0204B1B6F23F44073BD
:103420003B611E4B1B6F1D4A43F4803313671B4BDC
:103430001B6F1A4A23F480331367184A3B691367DA
:10344000164B1B6F03F00103012B14D100F090FD0C
:1034500078610AE000F08CFD02467B69D31A41F2E4
:103460008832934201D9032319E30C4B1B6F03F0FD
:103470000203002BEED07B681B6B03F44073B3F5A3
:10348000407F11D1054B9B6823F4F8127B68196BC0
:10349000044B0B40014913438B600BE000380240A2
:1034A00000700040FFFCFF0FAA4B9B68A94A23F461
:1034B000F8139360A74B1A6F7B681B6BC3F30B0366
:1034C000A44913430B677B681B6803F01003002BB0
:1034D00010D0A04BD3F88C309E4A23F08073C2F8F2
:1034E0008C309C4BD3F88C207B689B6B99491343A1
:1034F000C1F88C307B681B6803F48043002B0AD032
:10350000944BD3F8903023F440327B685B6E914942
:103510001343C1F890307B681B6803F40043002B11
:103520000AD08C4BD3F8903023F440227B689B6EFA
:1035300088491343C1F890307B681B6803F48033DB
:10354000002B0AD0834BD3F8903023F440127B68D1
:10355000DB6E80491343C1F890307B681B6803F42D
:103560000033002B0AD07B4BD3F8903023F4400279
:103570007B681B6F77491343C1F890307B681B68E9
:1035800003F04003002B0AD0724BD3F8903023F0A5
:1035900003027B685B6C6F491343C1F890307B6812
:1035A0001B6803F08003002B0AD06A4BD3F89030DD
:1035B00023F00C027B689B6C66491343C1F8903082
:1035C0007B681B6803F48073002B0AD0614BD3F82F
:1035D000903023F030027B68DB6C5E491343C1F806
:1035E00090307B681B6803F40073002B0AD0594BA2
:1035F000D3F8903023F0C0027B681B6D554913430C
:10360000C1F890307B681B6803F48063002B0AD0FC
:10361000504BD3F8903023F440727B685B6D4D497A
:103620001343C1F890307B681B6803F40063002BE0
:103630000AD0484BD3F8903023F440627B689B6DEE
:1036400044491343C1F890307B681B6803F48053EE
:10365000002B0AD03F4BD3F8903023F440527B68C4
:10366000DB6D3C491343C1F890307B681B6803F461
:103670000053002B0AD0374BD3F8903023F440424C
:103680007B681B6E33491343C1F890307B681B681D
:1036900003F48003002B0AD02E4BD3F8903023F094
:1036A00080627B689B6F2B491343C1F890307B6825
:1036B0001B6803F40013002B11D0264BD3F8903075
:1036C00023F000627B68DB6F22491343C1F890301E
:1036D0007B68DB6FB3F1006F01D10123BB617B68B5
:1036E0001B6803F00803002B01D00123BB617B683A
:1036F0001B6803F48023002B0AD0164BD3F89030BC
:1037000023F040727B685B6F12491343C1F890301D
:103710007B681B6803F40003002B0BD00D4BD3F820
:10372000903023F080527B68D3F8803009491343EE
:10373000C1F89030FB69012B06D07B681B6803F051
:103740000073002B00F0D980024B1B68014A23F064
:10375000806301E000380240136000F009FC7861EA
:1037600008E000F005FC02467B69D31A642B01D9FE
:10377000032394E16C4B1B6803F00063002BF0D132
:103780007B681B6803F00103002B21D07B685B6B17
:10379000002B1DD1644BD3F884301B0C03F00303C2
:1037A0003B61614BD3F884301B0E03F00F03FB60C9
:1037B0007B685B689A013B691B041A43FB681B0624
:1037C0001A437B689B681B0757491343C1F8843031
:1037D0007B681B6803F40023002B04D07B68DB6B41
:1037E000B3F5801F0AD07B681B6803F48013002B9D
:1037F0002ED07B681B6CB3F5800F29D14A4BD3F8D0
:1038000084301B0C03F003033B61474BD3F8843037
:103810001B0F03F00703FB607B685B689A013B6941
:103820001B041A437B68DB681B061A43FB681B07F3
:103830003D491343C1F884303B4BD3F88C3023F01F
:103840001F027B685B6A013B37491343C1F88C3028
:103850007B681B6803F08073002B1DD0324BD3F8BC
:1038600084301B0E03F00F033B612F4BD3F88430E1
:103870001B0F03F00703FB607B685B689A017B68A2
:103880001B691B041A433B691B061A43FB681B0791
:1038900025491343C1F884307B681B6803F000732B
:1038A000002B11D07B685B689A017B681B691B0445
:1038B0001A437B68DB681B061A437B689B681B07FF
:1038C00019491343C1F88430174B1B68164A43F05B
:1038D0008063136000F04CFB786108E000F048FB67
:1038E00002467B69D31A642B01D90323D7E00E4B20
:1038F0001B6803F00063002BF0D0BB69012B40F084
:10390000CD80094B1B68084A23F08053136000F0F8
:103910002FFB78610AE000F02BFB02467B69D31A8B
:10392000642B03D90323BAE0003802405E4B1B68C6
:1039300003F00053B3F1005FEDD07B681B6803F424
:103940000023002B03D07B68DB6B002B09D07B6846
:103950001B6803F48013002B2ED07B681B6C002B9C
:103960002AD1514BD3F888301B0C03F003033B6181
:103970004D4BD3F888301B0F03F00703FB607B68C7
:103980005B699A013B691B041A437B689B691B06B0
:103990001A43FB681B0744491343C1F88830424B64
:1039A000D3F88C3023F4F8527B689B6A013B1B02EE
:1039B0003D491343C1F88C307B681B6803F4001346
:1039C000002B22D07B68DB6FB3F1006F1DD1364B2B
:1039D000D3F888301B0E03F00F033B61324BD3F852
:1039E00088301B0F03F00703FB607B685B699A015B
:1039F0007B681B6A1B041A433B691B061A43FB685E
:103A00001B0729491343C1F888307B681B6803F002
:103A10000803002B28D0244BD3F888301B0E03F06A
:103A20000F033B61204BD3F888301B0C03F00303DA
:103A3000FB607B685B699A01FB681B041A433B6966
:103A40001B061A437B68DB691B0717491343C1F840
:103A50008830154BD3F88C3023F440327B68DB6A16
:103A600011491343C1F88C300F4B1B680E4A43F0C9
:103A70008053136000F07CFA786108E000F078FA77
:103A800002467B69D31A642B01D9032307E0064B56
:103A90001B6803F00053B3F1005FEFD10023184619
:103AA0002037BD4680BD00BF0038024080B489B0D9
:103AB00000AF786039600023FB6100237B61002345
:103AC0003B610023BB610023FB6175E10122FB69BF
:103AD00002FA03F37B613B681B687A6913403B6120
:103AE0003A697B699A4240F064813B685B6803F005
:103AF0000303012B05D03B685B6803F00303022B33
:103B000030D17B689B68BB61FB695B00032202FAD2
:103B100003F3DB43BA691340BB613B68DA68FB69B6
:103B20005B0002FA03F3BA691343BB617B68BA69AD
:103B30009A607B685B68BB610122FB6902FA03F350
:103B4000DB43BA691340BB613B685B681B0903F048
:103B50000102FB6902FA03F3BA691343BB617B6894
:103B6000BA695A603B685B6803F00303032B17D004
:103B70007B68DB68BB61FB695B00032202FA03F32D
:103B8000DB43BA691340BB613B689A68FB695B0021
:103B900002FA03F3BA691343BB617B68BA69DA605E
:103BA0003B685B6803F00303022B23D1FB69DA084F
:103BB0007B68083253F82230BB61FB6903F00703CE
:103BC0009B000F2202FA03F3DB43BA691340BB6187
:103BD0003B681A69FB6903F007039B0002FA03F3D1
:103BE000BA691343BB61FB69DA087B680832B969BB
:103BF00043F822107B681B68BB61FB695B000322F2
:103C000002FA03F3DB43BA691340BB613B685B68AC
:103C100003F00302FB695B0002FA03F3BA69134382
:103C2000BB617B68BA691A603B685B6803F4403328
:103C3000002B00F0BE80664B5B6C654A43F480430A
:103C40005364634B5B6C03F48043FB60FB68614A25
:103C5000FB699B08023352F82330BB61FB6903F018
:103C600003039B000F2202FA03F3DB43BA691340FC
:103C7000BB617B68584A934237D07B68574A93426E
:103C800031D07B68564A93422BD07B68554A934289
:103C900025D07B68544A93421FD07B68534A934295
:103CA00019D07B68524A934213D07B68514A9342A1
:103CB0000DD07B68504A934207D07B684F4A9342AD
:103CC00001D1092312E00A2310E008230EE00723A4
:103CD0000CE006230AE0052308E0042306E00323A2
:103CE00004E0022302E0012300E00023FA6902F06D
:103CF000030292009340BA691343BB613549FB69E3
:103D00009B080233BA6941F823203D4B9B68BB6195
:103D10003B69DB43BA691340BB613B685B6803F4F2
:103D20008013002B03D0BA693B691343BB61344A4B
:103D3000BB699360324BDB68BB613B69DB43BA69AB
:103D40001340BB613B685B6803F40013002B03D096
:103D5000BA693B691343BB61294ABB69D360284BED
:103D60005B68BB613B69DB43BA691340BB613B687D
:103D70005B6803F40033002B03D0BA693B6913433B
:103D8000BB611F4ABB6953601D4B1B68BB613B692C
:103D9000DB43BA691340BB613B685B6803F4803363
:103DA000002B03D0BA693B691343BB61144ABB695A
:103DB0001360FB690133FB61FB690F2B7FF686AE55
:103DC00000BF00BF2437BD465DF8047B704700BFCD
:103DD0000038024000380140000002400004024068
:103DE00000080240000C0240001002400014024093
:103DF00000180240001C0240002002400024024043
:103E0000003C014080B483B000AF78600B467B80FB
:103E100013467B707B78002B03D07A887B689A618D
:103E200003E07B881A047B689A6100BF0C37BD46AB
:103E30005DF8047B704780B485B000AF78600B46B6
:103E40007B807B685B69FB607A88FB6813401A049F
:103E5000FB68D9437B880B401A437B689A6100BF9B
:103E60001437BD465DF8047B7047000080B400AF96
:103E7000054B1B68044A43F48073136000BFBD46C2
:103E80005DF8047B704700BF0070004080B582B0D1
:103E900000AF00237B60234B1B6C224A43F080530E
:103EA0001364204B1B6C03F080533B603B681E4B3C
:103EB0001B681D4A43F48033136000F059F87860A2
:103EC00009E000F055F802467B68D31AB3F57A7F13
:103ED00001D9032322E0144B5B6803F48033B3F56C
:103EE000803FEED1104B1B680F4A43F40033136040
:103EF00000F03EF8786009E000F03AF802467B688E
:103F0000D31AB3F57A7F01D9032307E0064B5B6828
:103F100003F40033B3F5003FEED100231846083711
:103F2000BD4680BD003802400070004080B500AF43
:103F30000320FEF7DAFC0F20FEF702FBFEF756FA2D
:103F40000023184680BD000080B400AF064B1B78EC
:103F50001A46064B1B681344044A136000BFBD4653
:103F60005DF8047B704700BF640000201C04002043
:103F700080B400AF034B1B681846BD465DF8047B58
:103F8000704700BF1C04002080B584B000AF78608B
:103F9000FFF7EEFFB8607B68FB60FB68B3F1FF3FA3
:103FA00005D00A4B1B781A46FB681344FB6000BF20
:103FB000FFF7DEFF0246BB68D31AFA689A42F7D8C9
:103FC00000BF00BF1037BD4680BD00BF64000020A9
:103FD00080B584B000AF78607B68002B01D10123ED
:103FE00086E07B68D3F88430002B06D17B682022E2
:103FF000C3F88420786802F095FA3F4B5B6C3E4A28
:1040000043F4804353643C4B5B6C03F48043BB60DC
:10401000BB683A4B5B68394A23F400035360374B63
:104020005A687B689B68354913434B60334B5B6828
:104030007B681B6803F580531B687A68126843F03D
:10404000010302F580521360FFF792FFF86011E060
:10405000FFF78EFF0246FB68D31AB3F5FA7F09D942
:104060007B680422C3F888207B68E022C3F88420A0
:1040700001233DE07B681B6803F580531B6803F058
:104080000103002BE4D1786800F04AFE786800F064
:10409000F5FE786800F04BFF7B685B681A460021EC
:1040A000786800F0B3FE7B681B68DA6B7B681B687E
:1040B00042F40272DA637B681B68D3F80C117B68E8
:1040C0001A680F4B0B43C2F80C317B681B68D3F89E
:1040D00010217B681B6842F40312C3F810217B682F
:1040E0000022C3F888207B681022C3F884200023B4
:1040F00018461037BD4680BD0038024000380140E8
:104100006000020080B584B000AF78607B68D3F8AF
:104110008430102B50D17B682022C3F884207B6828
:104120000422DA66786800F02BFA7B681B681A684C
:104130007B681B6842F008021A607B681B681B687A
:10414000FB600120FFF720FF7B681B68FA681A609C
:104150007B681B681A687B681B6842F004021A605F
:104160007B681B681B68FB600120FFF70DFF7B6805
:104170001B68FA681A60786800F06EFC7B681B6840
:1041800003F580539B697A68126843F4005302F583
:10419000805293617B681B6803F580539B697A6842
:1041A000126843F0020302F5805293617B6840225B
:1041B000C3F88420002300E0012318461037BD46D1
:1041C00080BD000080B584B000AF78607B68D3F814
:1041D0008430102B5FD17B682022C3F884207B6859
:1041E00001229A657B680422DA66786800F0C8F9D3
:1041F0007B681B681B68FB600120FFF7C5FE7B68BE
:104200001B68FA681A607B681B6803F580539B691A
:104210007A68126843F4005302F5805293617B6818
:104220001B6803F580539B697A68126843F00203A8
:1042300002F580529361786800F00EFC7B681B6881
:104240001A687B681B6842F008021A607B681B686A
:104250001B68FB600120FFF797FE7B681B68FA680C
:104260001A607B681B681A687B681B6842F004024E
:104270001A607B681B6803F58053D9697B681A68EC
:10428000074B0B4302F58052D3617B684022C3F891
:104290008420002300E0012318461037BD4680BD6E
:1042A000C1A0010080B584B000AF78607B68D3F80E
:1042B0008430402B4AD17B682022C3F884207B685D
:1042C0001B6803F580539B697A68126823F40053D6
:1042D00002F5805293617B681B6803F580539B69EC
:1042E0007A68126823F0020302F5805293617B68BA
:1042F0001B681A687B681B6822F004021A607B68DE
:104300001B681B68FB600120FFF73EFE7B681B6893
:10431000FA681A60786800F09FFB7B681B681A686F
:104320007B681B6822F008021A607B681B681B68A8
:10433000FB600120FFF728FE7B681B68FA681A60A3
:104340007B681022C3F88420002300E00123184674
:104350001037BD4680BD000080B586B000AF7860E4
:104360007B68D3F88430402B6ED17B682022C3F861
:1043700084207B681B6803F58053D9697B681A68C1
:10438000344B0B4002F58052D3617B681B6803F508
:1043900080539B697A68126823F4005302F58052B7
:1043A00093617B681B6803F580539B697A68126888
:1043B00023F0020302F5805293617B681B681A6840
:1043C0007B681B6822F004021A607B681B681B680C
:1043D0003B610120FFF7D8FD7B681B683A691A60D2
:1043E000786800F039FB7B681B681A687B681B687B
:1043F00022F008021A607B681B681B683B61012081
:10440000FFF7C2FD7B681B683A691A6000237B6175
:104410000EE07B687A69123253F82230FB60FB6849
:104420005B6843F00042FB685A607B6901337B6143
:104430007B69032BEDD97B6800229A657B6810228B
:10444000C3F88420002300E0012318461837BD4636
:1044500080BD00BF3E5FFEFF80B586B000AFF86054
:10446000B9607A60BB68002B09D1FB68D3F888304B
:1044700043F00102FB68C3F8882001237CE0FB685D
:10448000D3F88430402B76D10022B968F86800F068
:10449000BDFD0346002B09D0FB68D3F8883043F0FC
:1044A0000202FB68C3F88820012365E0BFF34F8F49
:1044B00000BFFB689A6AFB68063253F822307B61C2
:1044C000FB689B6A5A1CFB689A62FB689B6A032B19
:1044D00004D9FB689B6A1A1FFB689A62FB68996A99
:1044E000FB681A68FB68063153F8213002F58052E8
:1044F0005360FFF73DFD386137E0FB681B6803F54B
:1045000080535B6903F40053002B11D0FB68D3F890
:10451000883043F00802FB68C3F88820FB681B68FA
:1045200003F580535A69FB68C3F88C20012323E00C
:104530007B68B3F1FF3F18D0FFF71AFD02463B69D5
:10454000D31A7A689A4202D37B68002B0DD1FB689C
:10455000D3F8883043F00402FB68C3F888207B69F5
:104560004FF040521A60012306E07B691B68002B64
:10457000C3DB002300E0012318461837BD4680BD89
:1045800080B588B000AF78600023BB600123FB7466
:104590007B689B6EFB617B68FA69123253F82230AC
:1045A0007B617B68DB6EBB6142E07B691B6A002B31
:1045B00012D107F10803184602F026F9BB68002B58
:1045C00002D10023FB7407E0BB681A467B691A62BC
:1045D000BB681A467B699A60FB7C002B28D07B68FD
:1045E0009B6D002B06D17B685A69264B13437A6971
:1045F000536005E07B685B6943F480427B695A60E5
:104600007B691B6843F000427B691A60FB690133D8
:10461000FB61FB69032B02D9FB69043BFB617B68EF
:10462000FA69123253F822307B61BB69013BBB61EE
:10463000BB69002B02D0FB7C002BB6D17B68DB6E04
:10464000BA699A421AD0FB69033303F00303FB6093
:10465000BFF35F8F00BF7B681969FA6813469B0040
:104660001344DB00CA187B681B6803F580539A600B
:104670007B68FA699A667B68BA69DA6600BF203798
:10468000BD4680BD0040008080B586B000AFF860B8
:10469000B9607A603B60FB681B681B697B617B6962
:1046A00003F01C037B61BB68DB029BB27A69134396
:1046B0007B617B689B0103F4F8637A6913437B6138
:1046C0007B6923F002037B617B6943F001037B611B
:1046D000FB681B687A691A61FFF74AFC38610DE0D4
:1046E000FFF746FC02463B69D31AB3F5803F01D37E
:1046F000012310E0FB681B681B697B617B6903F089
:104700000103002BECD1FB681B685B699BB21A4666
:104710003B681A60002318461837BD4680BD80B537
:1047200086B000AFF860B9607A603B60FB681B68D8
:104730001B697B617B6903F01C037B61BB68DB0247
:104740009BB27A6913437B617B689B0103F4F86336
:104750007A6913437B617B6943F002037B617B6968
:1047600043F001037B613B689AB2FB681B685A61A6
:10477000FB681B687A691A61FFF7FAFB38610DE084
:10478000FFF7F6FB02463B69D31AB3F5803F01D32E
:10479000012309E0FB681B681B697B617B6903F0EF
:1047A0000103002BECD1002318461837BD4680BD0D
:1047B00080B483B000AF786039603B68002B01D1D2
:1047C0000123E6E07B681B681B6803F01003002BE5
:1047D00014BF01230023DBB21A463B6883F828206C
:1047E0007B681B681B6803F060023B685A627B6849
:1047F0001B681B6803F40073002B0CBF012300230C
:10480000DBB21A463B6883F820207B681B681B6874
:1048100003F48033002B14BF01230023DBB21A46BC
:104820003B68DA777B681B681B6803F40053002B36
:104830000CBF01230023DBB21A463B689A777B68E2
:104840001B681B6803F48053002B14BF0123002353
:10485000DBB21A463B681A777B681B681B6803F457
:1048600000623B689A617B681B681B6803F48042A6
:104870003B685A617B681B681B6803F48003002B4C
:104880000CBF01230023DBB21A463B685A747B68D5
:104890001B681B6803F40003002B0CBF01230023DB
:1048A000DBB21A463B681A747B681B681B6803F00E
:1048B0008003002B14BF01230023DBB21A463B68A0
:1048C000DA737B681B681B6803F460223B689A609C
:1048D0007B681B681B6803F48063002B14BF0123F3
:1048E0000023DBB21A463B681A717B681B681B68A1
:1048F00003F00073002B14BF01230023DBB21A4620
:104900003B689A737B681B689B6903F00203002B6A
:1049100014BF01230023DBB21A463B6883F85420FE
:104920007B681B689B6903F08003002B0CBF01238D
:104930000023DBB21A463B6883F84C207B681B6877
:104940009B6903F030023B681A657B681B689B69B2
:104950001B0C9AB23B689A647B681B689B6903F0E6
:104960000403002B14BF01230023DBB21A463B686B
:1049700083F856207B681B689B6903F00803002BB3
:1049800014BF01230023DBB21A463B6883F855208D
:10499000002318460C37BD465DF8047B704780B590
:1049A00082B000AF786039603B68002B01D10123F1
:1049B0000BE07B68D3F88430102B05D13968786818
:1049C00000F070F8002300E0012318460837BD46C8
:1049D00080BD000080B584B000AF78607B681B6844
:1049E0001B69FB60FB6823F01C03FB60FEF708FCFF
:1049F000B860BB68144A934204D8FB6843F00803CC
:104A0000FB6019E0BB68114A934204D2FB6843F093
:104A10000C03FB6010E0BB680D4A93420CD9BB68E5
:104A20000C4A934204D8FB6843F00403FB6003E0A4
:104A3000FB6843F01003FB607B681B68FA681A612F
:104A400000BF1037BD4680BDBF0E1602008793031E
:104A5000FFE0F5057FD1F00880B584B000AF786045
:104A60000023FB607B681B6803F580539B697A68B1
:104A7000126843F4801302F5805293617B681B68CF
:104A800003F580539B69FB600120FFF77DFA7B688B
:104A90001A68FB6802F58052936100BF1037BD466B
:104AA00080BD000080B584B000AF786039607B685D
:104AB0001B681B68FB60FA68534B1340FB603B6844
:104AC0009B7B5B063A68127C002A02D14FF40002FD
:104AD00000E0002213433A68527C002A02D14FF4CE
:104AE000800200E000221A433B689B681A433B683F
:104AF000DB7F1B041A433B685B6913433A68927F70
:104B0000002A02D14FF4005200E000221A433B6811
:104B10001B7F1B031A433B689B691A433B681B7945
:104B20009B0213433A6892F82020002A02D14FF4E6
:104B3000007200E000221A433B68DB7BDB011A4372
:104B40003B685B6A1A433B6893F828301B011343A8
:104B5000FA681343FB607B681B68FA681A607B681D
:104B60001B681B68FB600120FFF70EFA7B681B685F
:104B7000FA681A607B681B689B69FB60FA684FF6ED
:104B800041731340FB603B689B6C1B043A6892F8CE
:104B90004C20002A01D1802200E000221A433B6809
:104BA0001B6D13433A6892F85520012A01D108225F
:104BB00000E0002213433A6892F85620012A01D1FE
:104BC000042200E0002213433A6892F85420012A9C
:104BD00001D1022200E000221343FA681343FB6074
:104BE0007B681B68FA689A617B681B689B69FB603D
:104BF0000120FFF7C9F97B681B68FA689A6100BF5A
:104C00001037BD4680BD00BF0F8120FD80B584B048
:104C100000AF786039607B681B6803F580539B693F
:104C2000FB60FA683D4B1340FB603B681B7B002B2D
:104C300002D14FF0806200E000223B685B7B5B06A4
:104C400013433A68527F002A02D14FF4801200E0E9
:104C500000221A433B689B7B5B051A433B685B69F8
:104C60001A433B681B7FDB011A433B689B7F9B0118
:104C70001A433B681B6A1A433B6893F824309B0035
:104C80001343FA681343FB607B681B6803F580538A
:104C90001A46FB6893617B681B6803F580539B6928
:104CA000FB600120FFF770F97B681B6803F58053F8
:104CB0001A46FB6893613B681B795A063B689B6800
:104CC0001A433B689B691A433B681B691A433B685C
:104CD00093F82530DB011A433B689B6A9B001A431B
:104CE0003B681B6813437A68126843F4000302F5BB
:104CF000805213607B681B6803F580531B68FB6060
:104D00000120FFF741F97B681B6803F580531A46C1
:104D1000FB68136000BF1037BD4680BD233FDEF83F
:104D200080B5A6B000AF7860012387F84430012336
:104D300087F845300023FB63002387F853300123B5
:104D400087F85230002387F85030012387F842302B
:104D5000012387F83830002387F85430002387F880
:104D600043300023BB65002387F85C300023FB67DA
:104D7000002387F880300023C7F88430002387F8A9
:104D80008A30002387F888304FF48043BB644FF4A7
:104D90000063FB64002387F8893007F13403194668
:104DA0007868FFF77FFE01233B7501237B750123A4
:104DB00087F825300123BB750023FB61002387F8AA
:104DC0002430002387F826300023BB62012387F8B4
:104DD0002C3001233B734FF480333B614FF480034D
:104DE0003B624FF40053BB61012387F82D30002351
:104DF0003B630023BB6007F1080319467868FFF79F
:104E000005FF00BF9837BD4680BD000080B487B065
:104E100000AFF860B9607A607B6805331B781B02CD
:104E20007A680432127813437B61BA68114B1344D9
:104E30001A467B6913607B6803331B781A067B680C
:104E400002331B781B041A437B6801331B781B0257
:104E500013437A68127813437B61BA68064B134494
:104E60001A467B69136000BF1C37BD465DF8047BA2
:104E7000704700BF408002404480024080B485B04B
:104E800000AF78600023FB603EE07B68D968FA6879
:104E900013469B001344DB000B44BB60BB6800223D
:104EA0001A60BB6800225A60BB6800229A60BB6827
:104EB0000022DA60B9687B68FA68063243F822108B
:104EC000BB681B6843F48012BB681A60FB68022B46
:104ED0000CD87B68D968FB685A1C13469B001344A6
:104EE000DB000B441A46BB68DA6004E07B68DB68D1
:104EF0001A46BB68DA60BB681B6843F44002BB68B3
:104F00001A60FB680133FB60FB68032BBDD97B682B
:104F100000229A627B68DA687B681B6803F580531D
:104F20001A6100BF1437BD465DF8047B704780B43A
:104F300085B000AF78600023FB6048E07B681969AA
:104F4000FA6813469B001344DB000B44BB60BB684C
:104F500000221A60BB6800225A60BB6800229A6077
:104F6000BB680022DA60BB6800221A62BB680022BC
:104F70005A62BB684FF000421A607B685B6943F479
:104F80008042BB685A60BB685B6823F00042BB6824
:104F90005A60B9687B68FA68123243F82210FB68DD
:104FA000022B0CD87B681969FB685A1C13469B00BE
:104FB0001344DB000B441A46BB68DA6004E07B68EC
:104FC0001B691A46BB68DA60FB680133FB60FB684B
:104FD000032BB3D97B680022DA657B6800221A664E
:104FE0007B6800229A667B680022DA667B68002272
:104FF0009A657B681A697B681B6803F58053DA60E1
:1050000000BF1437BD465DF8047B704780B491B093
:1050100000AFF860B9607A60FB6818337B627B6A26
:105020001B69FB637B6A1B693B6200237B637B6AB2
:10503000FA6B53F822303B63BB689B68FB6200232A
:10504000BB623B6B1B6803F00043B3F1004F07D01A
:105050007A6AFB6B04339B0013445B68002B01D01E
:10506000022311E17B6B01337B63FB6A1B681A46E9
:105070003B6B9A603B6B5A68864B1340FA6A5268E6
:105080001A433B6B5A60BB681B6803F00103002B9B
:1050900008D03B6B1B6823F44002BB685B691A4372
:1050A0003B6B1A60BB681B6803F02003002B08D021
:1050B0003B6B1B6823F04062BB681B691A433B6B68
:1050C0001A60BB681B6803F00403002B05D03B6B20
:1050D0001B6843F080023B6B1A603B6B1B6843F01C
:1050E00080523B6B1A6082E03B6B1B6823F00052DE
:1050F0003B6B1A607B68002B06D03B6B1B6843F050
:1051000080423B6B1A6005E03B6B1B6823F08042DA
:105110003B6B1A60FB6B0133FB63FB6B032B02D908
:10512000FB6B043BFB637B6AFA6B53F822303B63F7
:105130003B6B1B6803F00043B3F1004F07D07A6A62
:10514000FB6B04339B0013445B68002B29D03B6A44
:10515000FB637B6AFA6B53F822303B630023BB632B
:1051600019E0BFF35F8F00BF3B6B1B6823F0004269
:105170003B6B1A60FB6B0133FB63FB6B032B02D9A8
:10518000FB6B043BFB637B6AFA6B53F822303B6397
:10519000BB6B0133BB63BA6B7B6B9A42E1D30223D7
:1051A00072E03B6B1B6823F080523B6B1A607B6B99
:1051B00001337B63FB6A9B68FB62FB6A1B681A46D0
:1051C0003B6B9A603B6B5A68324B1340FA6A5268E9
:1051D0001A433B6B5A60BB6A0133BB62BFF35F8FFC
:1051E00000BF3B6B1B6843F000423B6B1A60FB6ADD
:1051F0009B68002B7FF478AF7B68002B06D03B6B5D
:105200001B6843F080423B6B1A6005E03B6B1B68F8
:1052100023F080423B6B1A603B6B1B6843F00052EB
:105220003B6B1A607B6A3A6A53F822303B63BFF3E8
:105230005F8F00BF3B6B1B6843F000423B6B1A6003
:105240007B6A5A6A796AFB6B04339B000B445A6091
:105250007B6AFA6B1A61EFF310833B613B69FB6178
:1052600001237B617B6983F3108800BF7B6A9A6AA4
:10527000BB6A13445A1C7B6A9A62FB69BB61BB69B7
:1052800083F3108800BF002318464437BD465DF8FD
:10529000047B704700E0FFFF80B582B000AF78600C
:1052A0007B68002B01D1012340E07B68DB6F002B82
:1052B00006D17B68002283F878207868FDF7BEF875
:1052C0007B682422DA677B681B681A687B681B6826
:1052D00022F001021A607B685B6A002B02D07868BA
:1052E00000F016FB786800F0AFF80346012B01D1FF
:1052F00001231BE07B681B685A687B681B6822F4EB
:1053000090425A607B681B689A687B681B6822F031
:105310002A029A607B681B681A687B681B6842F0E7
:1053200001021A60786800F095FB034618460837BA
:10533000BD4680BD80B58AB002AFF860B9603B6001
:105340001346FB80FB68DB6F202B77D1BB68002BFB
:1053500002D0FB88002B01D1012370E0FB68002202
:10536000C3F88420FB682122DA67FEF701FE78612A
:10537000FB68FA88A3F85020FB68FA88A3F852204B
:10538000FB689B68B3F5805F08D1FB681B69002B45
:1053900004D10023FB61BB68BB6103E0BB68FB6118
:1053A0000023BB612FE03B6800937B6900228021D2
:1053B000F86800F0A6FB0346002B04D0FB6820220F
:1053C000DA6703233BE0FB69002B0BD1BB691B8829
:1053D0001A46FB681B68C2F308029A62BB69023373
:1053E000BB6107E0FB691A78FB681B689A62FB697E
:1053F0000133FB61FB68B3F852309BB2013B9AB2B8
:10540000FB68A3F85220FB68B3F852309BB2002B24
:10541000C9D13B6800937B6900224021F86800F005
:1054200070FB0346002B04D0FB682022DA670323BD
:1054300005E0FB682022DA67002300E0022318461B
:105440002037BD4680BD000080B588B000AF7860D1
:105450000023BB777B689A687B681B691A437B686B
:105460005B691A437B68DB6913437B617B681B685C
:105470001A68A64B13407A68126879690B43136067
:105480007B681B685B6823F440517B68DA687B6843
:105490001B680A435A607B689B697B617B681B6A57
:1054A0007A6913437B617B681B689B6823F43061D6
:1054B0007B681B687A690A439A607B681B68944A18
:1054C000934220D1934BD3F8903003F00303032B86
:1054D00016D801A252F823F0E9540008F554000848
:1054E000EF540008FB5400080123FB7750E102232E
:1054F000FB774DE10423FB774AE10823FB7747E183
:105500001023FB7744E17B681B68834A934232D1C6
:10551000804BD3F8903003F00C030C2B28D801A259
:1055200052F823F0595500087155000871550008CC
:10553000715500086555000871550008715500083F
:10554000715500085F550008715500087155000835
:10555000715500086B5500080023FB7718E1022302
:10556000FB7715E10423FB7712E10823FB770FE1BA
:105570001023FB770CE17B681B68684A934220D1BB
:10558000644BD3F8903003F03003302B13D0302B22
:1055900014D8202B09D0202B10D8002B02D0102B90
:1055A00006D00BE00023FB77F2E00223FB77EFE06D
:1055B0000423FB77ECE00823FB77E9E01023FB777B
:1055C000E6E07B681B68564A934220D1514BD3F8E2
:1055D000903003F0C003C02B13D0C02B14D8802B05
:1055E00009D0802B10D8002B02D0402B06D00BE026
:1055F0000023FB77CCE00223FB77C9E00423FB7791
:10560000C6E00823FB77C3E01023FB77C0E07B688C
:105610001B68444A934225D13E4BD3F8903003F4A3
:105620004073B3F5407F17D0B3F5407F17D8B3F57B
:10563000007F0BD0B3F5007F11D8002B03D0B3F55A
:10564000807F06D00BE00023FB77A1E00223FB77ED
:105650009EE00423FB779BE00823FB7798E0102370
:10566000FB7795E07B681B682F4A934225D1294B35
:10567000D3F8903003F44063B3F5406F17D0B3F51F
:10568000406F17D8B3F5006F0BD0B3F5006F11D88A
:10569000002B03D0B3F5806F06D00BE00123FB771E
:1056A00076E00223FB7773E00423FB7770E00823A6
:1056B000FB776DE01023FB776AE07B681B681B4A71
:1056C000934238D1134BD3F8903003F44053B3F5E1
:1056D000405F17D0B3F5405F2AD8B3F5005F0BD019
:1056E000B3F5005F24D8002B03D0B3F5805F06D05C
:1056F0001EE00023FB774BE00223FB7748E0042306
:10570000FB7745E00823FB7742E000BFF369FFEF3A
:1057100000100140003802400044004000480040B2
:10572000004C004000500040001401400078004050
:105730001023FB772CE07B681B68724A934225D1CB
:10574000714BD3F8903003F44043B3F5404F17D07A
:10575000B3F5404F17D8B3F5004F0BD0B3F5004F5A
:1057600011D8002B03D0B3F5804F06D00BE00023F7
:10577000FB770DE00223FB770AE00423FB7707E0C9
:105780000823FB7704E01023FB7701E01023FB776D
:105790007B68DB69B3F5004F5BD1FB7F082B28D812
:1057A00001A252F823F000BFCD570008D5570008DA
:1057B000DD570008F3570008E3570008F3570008C7
:1057C000F3570008F3570008EB570008FDF724FDD6
:1057D000B86113E0FDF734FDB8610FE04B4BBB61DE
:1057E0000CE0FDF747FCB86108E04FF40043BB61F3
:1057F00004E00023BB610123BB7700BFBB69002B22
:1058000074D0BB695A007B685B685B081A447B688C
:105810005B68B2FBF3F33B613B690F2B16D93B6925
:10582000B3F5803F12D23B699BB223F00F03FB819B
:105830003B695B089BB203F007039AB2FB891343F1
:10584000FB817B681B68FA89DA604FE00123BB7734
:105850004CE0FB7F082B28D801A252F823F000BFB0
:10586000855800088D58000895580008AB58000866
:105870009B580008AB580008AB580008AB5800080C
:10588000A3580008FDF7C8FCB86113E0FDF7D8FC89
:10589000B8610FE01D4BBB610CE0FDF7EBFBB8619D
:1058A00008E04FF40043BB6104E00023BB61012327
:1058B000BB7700BFBB69002B18D07B685B685A08B8
:1058C000BB691A447B685B68B2FBF3F33B613B69DD
:1058D0000F2B09D93B69B3F5803F05D23B699AB2DA
:1058E0007B681B68DA6001E00123BB777B680022DC
:1058F0009A667B680022DA66BB7F18462037BD4671
:1059000080BD00BF007C0040003802400024F4004D
:1059100080B483B000AF78607B685B6A03F00803F3
:10592000002B0AD07B681B685B6823F400417B680E
:105930005A6B7B681B680A435A607B685B6A03F09A
:105940000103002B0AD07B681B685B6823F40031DD
:105950007B689A6A7B681B680A435A607B685B6A4B
:1059600003F00203002B0AD07B681B685B6823F4FA
:1059700080317B68DA6A7B681B680A435A607B68FF
:105980005B6A03F00403002B0AD07B681B685B682A
:1059900023F480217B681A6B7B681B680A435A607A
:1059A0007B685B6A03F01003002B0AD07B681B68DE
:1059B0009B6823F480517B689A6B7B681B680A4361
:1059C0009A607B685B6A03F02003002B0AD07B6837
:1059D0001B689B6823F400517B68DA6B7B681B684B
:1059E0000A439A607B685B6A03F04003002B1AD07D
:1059F0007B681B685B6823F480117B681A6C7B688A
:105A00001B680A435A607B681B6CB3F5801F0AD180
:105A10007B681B685B6823F4C0017B685A6C7B68F9
:105A20001B680A435A607B685B6A03F08003002BA3
:105A30000AD07B681B685B6823F400217B689A6C42
:105A40007B681B680A435A6000BF0C37BD465DF88F
:105A5000047B704780B58CB002AF78607B68002211
:105A6000C3F88420FEF784FA78627B681B681B68A1
:105A700003F00803082B2ED16FF07E4300937B6A5E
:105A800000224FF40011786800F03BF80346002B29
:105A900021D07B681B683B613B6953E8003FFB609A
:105AA000FB6823F080033B627B681B681A463B6AF5
:105AB000FB61BA61B969FA6941E800237B617B69DE
:105AC000002BE6D17B682022DA677B68002283F80E
:105AD0007820032311E07B682022DA677B6820228C
